0310HDR       BE001000000000000000000000000000000000EUR00000000000000000000290426290426CODA HEADER                     0000000000
1310REF0000001 BE001000000000000000000000000000000000EUR00000000000010000290426290426Transaction 0 for account     0010001
1310REF0000002 BE001000000000000000000000000000000000EUR00000000000015000290426280426Transaction 1 for account     0020002
1310REF0000003 BE001000000000000000000000000000000000EUR00000000000020000290426270426Transaction 2 for account     0010003
9000TRAILER    EUR00000000000045000290426290426TOTAL: 3                        9990003